:020000040800F2
:100000000804002045010008250300086F020008CD
:10001000210300088D010008E10400080000000031
:100020000000000000000000000000005103000874
:100030009101000800000000270300087D0400086B
:100040005F0100085F0100085F0100085F01000810
:100050005F0100085F0100085F0100085F01000800
:100060005F0100085F0100085F0100085F010008F0
:100070005F0100085F0100085F0100085F010008E0
:100080005F0100085F0100085F0100085F010008D0
:100090005F0100085F0100085F0100085F010008C0
:1000A0005F0100085F0100085F0100085F010008B0
:1000B0005F0100085F0100085F0100085F010008A0
:1000C0005F0100085F0100085F0100085F01000890
:1000D0005F0100085F0100085F0100085F01000880
:1000E0005F0100085F0100085F0100085F01000870
:1000F0005F0100085F0100085F0100085F01000860
:100100005F0100085F0100085F0100085F0100084F
:100110005F0100085F0100085F0100085F0100083F
:100120005F0100085F0100085F0100085F0100082F
:10013000DFF80CD000F018F800480047450500082B
:10014000080400200648804706480047FEE7FEE70F
:10015000FEE7FEE7FEE7FEE7FEE7FEE7FEE7FEE777
:100160008104000831010008064C074D06E0E068F4
:1001700040F0010394E8070098471034AC42F6D3EE
:10018000FFF7DAFFA8050008C805000800BFFEE772
:10019000704700002DE9F0410A4611889378D47821
:1001A00005684668FF2704F0100CBCF1000F04D06E
:1001B000C4F3810743EA870302E0C4F38107BB006D
:1001C00008290FD24FEA81084FF00F0C0CFA08FCF7
:1001D00025EA0C054FEA810C03FA0CFC4CEA0505F4
:1001E000056012E0A1F1080C4FEA8C084FF00F0CEB
:1001F0000CFA08FC26EA0C06A1F1080C4FEA8C0C5C
:1002000003FA0CFC4CEA0606466092F803C0BCF107
:10021000480F05D14FF0010C0CFA01FCC0F810C0DA
:100220004FF0030CDFF8088088F800C0BDE8F081CB
:100230000000002010B50246936898B2936801242C
:100240008C4023400BB1012000E0002010BD436929
:100250009AB201238B4013439AB2426170470369FB
:100260009AB201238B4013439AB20261704700BFD8
:10027000FEE7000008B50121402000F055F80220FB
:10028000ADF8000048208DF8030069460148FFF7EB
:1002900081FF08BD0018014010B5044611480078E0
:1002A000012810D102211048FFF7C4FF58B900F00F
:1002B00028F900200B49087002210B48FFF7BAFF0C
:1002C00048B90F2010BD02210748FFF7B3FF0128EE
:1002D00001D104490870012C02D1012001490870A4
:1002E0000120EFE7020000200018014008B50121BD
:1002F000102000F019F80020ADF8000003208DF860
:10030000020010208DF8030069460348FFF742FF02
:1003100003200249087008BD0010014000000020C1
:1003200000BFFEE77047704729B1074A9269024350
:10033000054B9A6104E0044A92698243024B9A6138
:100340000222024B1A707047001002400000002089
:10035000704710B500F002F810BD00000CB5002089
:10036000019000903348006840F4803031490860C3
:1003700000BF3048006800F4003000900198401C35
:100380000190009818B90198B0F5A06FF1D12948F3
:10039000006800F4003010B10120009001E000205E
:1003A00000900098012843D12348006840F01000D5
:1003B000214908600846006820F0030008600846EC
:1003C000006840F0020008601A4840681949486017
:1003D0000846406848600846406840F480604860CD
:1003E0000846406820F47C1048600846406840F4A5
:1003F000E81048600846006840F08070086000BF60
:100400000C48006800F000700028F9D009484068E6
:1004100020F00300074948600846406840F00200A9
:10042000486000BF0348406800F00C000828F9D17C
:100430000CBD00000010024000200240042808D13A
:100440004FF0E021096941F004014FF0E022116111
:1004500007E04FF0E021096921F004014FF0E022AC
:100460001161704700B503466FF00400FFF7E6FF27
:10047000D8100149087000BD01000020704700003D
:1004800010B51348006840F00100114908600846A3
:100490004068104908400E494860084600680E4907
:1004A00008400B4908600846006820F48020086076
:1004B0000846406820F4FE0048604FF41F00886042
:1004C000FFF747FF4FF000600449086010BD0000CF
:1004D000001002400000FFF8FFFFF6FE08ED00E00C
:1004E00000BFFEE702E008C8121F08C1002AFAD1C7
:1004F00070477047002001E001C1121F002AFBD1A4
:1005000070470A20002107E042F6E06100BF0A1EA2
:10051000A1F1010399B2FAD1021EA0F1010398B230
:10052000F2DC7047002107E042F6E06100BF0A1EDE
:10053000A1F1010399B2FAD1021EA0F1010398B210
:10054000F2DC70474820FFF78DFFFFF7CFFEFFF783
:1005500091FE26E00020FFF79FFE0446012C04D107
:1005600000211048FFF77BFE1BE0002517E0002666
:1005700011E000210B48FFF76AFE4FF4FA70FFF715
:10058000D1FF00210748FFF76AFE4FF4FA70FFF72A
:10059000C9FF701CC6B2052EEBDB681CC5B2052D69
:1005A000E5DBD7E700100140C80500080000002087
:1005B00004000000E4040008CC050008040000204A
:0C05C00004040000F40400080000010026
:0400000508000131BD
:00000001FF
