:020000040800F2
:1000000008040020450100086902000839020008C0
:10001000650200088D010008E503000800000000EB
:100020000000000000000000000000009502000831
:1000300091010008000000006B0200088103000825
:100040005F0100085F0100085F0100085F01000810
:100050005F0100085F0100085F0100085F01000800
:100060005F0100085F0100085F0100085F010008F0
:100070005F0100085F0100085F0100085F010008E0
:100080005F0100085F0100085F0100085F010008D0
:100090005F0100085F0100085F0100085F010008C0
:1000A0005F0100085F0100085F0100085F010008B0
:1000B0005F0100085F0100085F0100085F010008A0
:1000C0005F0100085F0100085F0100085F01000890
:1000D0005F0100085F0100085F0100085F01000880
:1000E0005F0100085F0100085F0100085F01000870
:1000F0005F0100085F0100085F0100085F01000860
:100100005F0100085F0100085F0100085F0100084F
:100110005F0100085F0100085F0100085F0100083F
:100120005F0100085F0100085F0100085F0100082F
:10013000DFF80CD000F018F8004800472D04000844
:10014000080400200648804706480047FEE7FEE70F
:10015000FEE7FEE7FEE7FEE7FEE7FEE7FEE7FEE777
:100160008503000831010008064C074D06E0E068F1
:1001700040F0010394E8070098471034AC42F6D3EE
:10018000FFF7DAFF5C0400087C04000800BFFEE70C
:10019000704700002DE9F0410A4611889378D6781F
:1001A00004684568FF2706F0100CBCF1000F01D071
:1001B000C6F3810743EA870308290FD24FEA810873
:1001C0004FF00F0C0CFA08FC24EA0C044FEA810CE7
:1001D00003FA0CFC4CEA0404046012E0A1F1080CE0
:1001E0004FEA8C084FF00F0C0CFA08FC25EA0C05BE
:1001F000A1F1080C4FEA8C0C03FA0CFC4CEA050543
:1002000045604FF0030CDFF80C8088F800C0BDE8B3
:10021000F08100000000002043699AB201238B4066
:1002200013439AB24261704703699AB201238B402B
:1002300013439AB20261704700BFFEE708B501217F
:10024000102000F013F80320ADF800008DF8020034
:1002500010208DF8030069460148FFF79BFF08BD99
:100260000010014000BFFEE77047704729B1074A00
:1002700092690243054B9A6104E0044A9269824301
:10028000024B9A610222024B1A7070470010024022
:1002900000000020704710B500F002F810BD00000B
:1002A0000CB50020019000903348006840F4803085
:1002B0003149086000BF3048006800F40030009009
:1002C0000198401C0190009818B90198B0F5A06FF2
:1002D000F1D12948006800F4003010B101200090ED
:1002E00001E0002000900098012843D123480068D5
:1002F00040F01000214908600846006820F0030023
:1003000008600846006840F0020008601A4840682B
:10031000194948600846406848600846406840F40B
:10032000806048600846406820F47C1048600846B9
:10033000406840F4E81048600846006840F080706B
:10034000086000BF0C48006800F000700028F9D079
:100350000948406820F003000749486008464068A3
:1003600040F00200486000BF0348406800F00C0005
:100370000828F9D10CBD0000001002400020024006
:100380007047000010B51348006840F001001149A3
:10039000086008464068104908400E494860084611
:1003A00000680E4908400B4908600846006820F4C0
:1003B000802008600846406820F4FE0048604FF442
:1003C0001F008860FFF767FF4FF000600449086076
:1003D00010BD0000001002400000FFF8FFFFF6FE15
:1003E00008ED00E000BFFEE702E008C8121F08C1E8
:1003F000002AFAD170477047002001E001C1121FA6
:10040000002AFBD170474FF47A70002107E042F6D2
:10041000E06100BF0A1EA1F1010399B2FAD1021EE8
:10042000A0F1010398B2F2DC70470000FFF706FF6D
:100430000120084908700BE003210748FFF7F4FE8C
:10044000FFF7E1FF03210448FFF7E6FEFFF7DBFFBC
:10045000F2E7000000000020001001407C040008CA
:100460000000002004000000E803000880040008E9
:100470000400002004040000F8030008000000004D
:0400000508000131BD
:00000001FF
